{
  "_format": "hh-sol-artifact-1",
  "contractName": "Payable",
  "sourceName": "testing/contracts/Payable.sol",
  "abi": [
    {
      "inputs": [],
      "stateMutability": "payable",
      "type": "constructor"
    },
    {
      "inputs": [],
      "name": "deposit",
      "outputs": [],
      "stateMutability": "payable",
      "type": "function"
    },
    {
      "inputs": [
        {
          "internalType": "uint256",
          "name": "someRandomVar",
          "type": "uint256"
        },
        {
          "internalType": "contract IERC20Upgradeable",
          "name": "token",
          "type": "address"
        },
        {
          "internalType": "uint256",
          "name": "amount",
          "type": "uint256"
        }
      ],
      "name": "depositWithParams",
      "outputs": [],
      "stateMutability": "payable",
      "type": "function"
    },
    {
      "inputs": [],
      "name": "owner",
      "outputs": [
        {
          "internalType": "address payable",
          "name": "",
          "type": "address"
        }
      ],
      "stateMutability": "view",
      "type": "function"
    }
  ],
  "bytecode": "0x6080604052600080546001600160a01b03191633179055610482806100256000396000f3fe6080604052600436106100345760003560e01c806302cfacdd146100395780638da5cb5b1461004e578063d0e30db01461004c575b600080fd5b61004c61004736600461038f565b61008a565b005b34801561005a57600080fd5b5060005461006e906001600160a01b031681565b6040516001600160a01b03909116815260200160405180910390f35b61009f6001600160a01b0383163330846100a4565b505050565b604080516001600160a01b0385811660248301528416604482015260648082018490528251808303909101815260849091019091526020810180516001600160e01b03166323b872dd60e01b1790526100fe908590610104565b50505050565b6000610159826040518060400160405280602081526020017f5361666545524332303a206c6f772d6c6576656c2063616c6c206661696c6564815250856001600160a01b03166101db9092919063ffffffff16565b80519091501561009f57808060200190518101906101779190610368565b61009f5760405162461bcd60e51b815260206004820152602a60248201527f5361666545524332303a204552433230206f7065726174696f6e20646964206e6044820152691bdd081cdd58d8d9595960b21b60648201526084015b60405180910390fd5b60606101ea84846000856101f2565b949350505050565b6060824710156102535760405162461bcd60e51b815260206004820152602660248201527f416464726573733a20696e73756666696369656e742062616c616e636520666f6044820152651c8818d85b1b60d21b60648201526084016101d2565b600080866001600160a01b0316858760405161026f91906103d1565b60006040518083038185875af1925050503d80600081146102ac576040519150601f19603f3d011682016040523d82523d6000602084013e6102b1565b606091505b50915091506102c2878383876102cd565b979650505050505050565b60608315610339578251610332576001600160a01b0385163b6103325760405162461bcd60e51b815260206004820152601d60248201527f416464726573733a2063616c6c20746f206e6f6e2d636f6e747261637400000060448201526064016101d2565b50816101ea565b6101ea838381511561034e5781518083602001fd5b8060405162461bcd60e51b81526004016101d291906103ed565b600060208284031215610379578081fd5b81518015158114610388578182fd5b9392505050565b6000806000606084860312156103a3578182fd5b8335925060208401356001600160a01b03811681146103c0578283fd5b929592945050506040919091013590565b600082516103e3818460208701610420565b9190910192915050565b602081526000825180602084015261040c816040850160208701610420565b601f01601f19169190910160400192915050565b60005b8381101561043b578181015183820152602001610423565b838111156100fe575050600091015256fea2646970667358221220750cb6a9632889d3047de9c5b58e0a9f2be2c1f5d903b3ddab86a558b140076d64736f6c63430008040033",
  "linkReferences": {},
  "deployedLinkReferences": {}
}